{
  "contractName": "FindMe",
  "abi": [
    {
      "constant": true,
      "inputs": [
        {
          "name": "",
          "type": "uint256"
        }
      ],
      "name": "positions",
      "outputs": [
        {
          "name": "id",
          "type": "bytes32"
        },
        {
          "name": "minRate",
          "type": "uint256"
        },
        {
          "name": "maxRate",
          "type": "uint256"
        },
        {
          "name": "expires",
          "type": "uint256"
        },
        {
          "name": "added",
          "type": "uint256"
        },
        {
          "name": "applicationFee",
          "type": "uint256"
        },
        {
          "name": "feesTaken",
          "type": "uint256"
        },
        {
          "name": "owner",
          "type": "address"
        }
      ],
      "payable": false,
      "stateMutability": "view",
      "type": "function"
    },
    {
      "constant": true,
      "inputs": [],
      "name": "fee",
      "outputs": [
        {
          "name": "",
          "type": "uint256"
        }
      ],
      "payable": false,
      "stateMutability": "view",
      "type": "function"
    },
    {
      "inputs": [],
      "payable": false,
      "stateMutability": "nonpayable",
      "type": "constructor"
    },
    {
      "constant": true,
      "inputs": [],
      "name": "getTest",
      "outputs": [
        {
          "name": "",
          "type": "uint256"
        }
      ],
      "payable": false,
      "stateMutability": "pure",
      "type": "function"
    },
    {
      "constant": true,
      "inputs": [],
      "name": "getPositions",
      "outputs": [
        {
          "components": [
            {
              "name": "id",
              "type": "bytes32"
            },
            {
              "name": "minRate",
              "type": "uint256"
            },
            {
              "name": "maxRate",
              "type": "uint256"
            },
            {
              "name": "expires",
              "type": "uint256"
            },
            {
              "name": "added",
              "type": "uint256"
            },
            {
              "name": "applicationFee",
              "type": "uint256"
            },
            {
              "name": "feesTaken",
              "type": "uint256"
            },
            {
              "name": "owner",
              "type": "address"
            }
          ],
          "name": "",
          "type": "tuple[]"
        }
      ],
      "payable": false,
      "stateMutability": "view",
      "type": "function"
    },
    {
      "constant": true,
      "inputs": [
        {
          "name": "_index",
          "type": "uint256"
        }
      ],
      "name": "getPosition",
      "outputs": [
        {
          "components": [
            {
              "name": "id",
              "type": "bytes32"
            },
            {
              "name": "minRate",
              "type": "uint256"
            },
            {
              "name": "maxRate",
              "type": "uint256"
            },
            {
              "name": "expires",
              "type": "uint256"
            },
            {
              "name": "added",
              "type": "uint256"
            },
            {
              "name": "applicationFee",
              "type": "uint256"
            },
            {
              "name": "feesTaken",
              "type": "uint256"
            },
            {
              "name": "owner",
              "type": "address"
            }
          ],
          "name": "",
          "type": "tuple"
        }
      ],
      "payable": false,
      "stateMutability": "view",
      "type": "function"
    },
    {
      "constant": false,
      "inputs": [
        {
          "name": "_id",
          "type": "bytes32"
        },
        {
          "name": "minRate",
          "type": "uint256"
        },
        {
          "name": "maxRate",
          "type": "uint256"
        },
        {
          "name": "_fee",
          "type": "uint256"
        }
      ],
      "name": "addPosition",
      "outputs": [],
      "payable": true,
      "stateMutability": "payable",
      "type": "function"
    },
    {
      "constant": false,
      "inputs": [
        {
          "name": "index",
          "type": "uint256"
        }
      ],
      "name": "apply",
      "outputs": [],
      "payable": true,
      "stateMutability": "payable",
      "type": "function"
    }
  ],
  "bytecode": "0x608060405234801561001057600080fd5b50336000806101000a81548173ffffffffffffffffffffffffffffffffffffffff021916908373ffffffffffffffffffffffffffffffffffffffff16021790555067016345785d8a000060018190555061009f7f6173646600000000000000000000000000000000000000000000000000000000607b6101c8604e6100a4640100000000026401000000009004565b6101ce565b600062278d004201905060026101006040519081016040528087600019168152602001868152602001858152602001428152602001838152602001848152602001600081526020013373ffffffffffffffffffffffffffffffffffffffff1681525090806001815401808255809150509060018203906000526020600020906008020160009091929091909150600082015181600001906000191690556020820151816001015560408201518160020155606082015181600301556080820151816004015560a0820151816005015560c0820151816006015560e08201518160070160006101000a81548173ffffffffffffffffffffffffffffffffffffffff021916908373ffffffffffffffffffffffffffffffffffffffff1602179055505050505050505050565b610bd0806101dd6000396000f300608060405260043610610083576000357c0100000000000000000000000000000000000000000000000000000000900463ffffffff16806323d551931461008857806380275860146100a457806399fbab88146100cf578063a8cd0a8014610113578063d5cc5a511461013e578063ddca3f431461015a578063eb02c30114610185575b600080fd5b6100a2600480360361009d919081019061074b565b6101c2565b005b3480156100b057600080fd5b506100b96102ec565b6040516100c69190610a12565b60405180910390f35b3480156100db57600080fd5b506100f660048036036100f191908101906107ae565b6103f1565b60405161010a989796959493929190610a34565b60405180910390f35b34801561011f57600080fd5b50610128610468565b6040516101359190610b0e565b60405180910390f35b610158600480360361015391908101906107ae565b610471565b005b34801561016657600080fd5b5061016f6105e1565b60405161017c9190610b0e565b60405180910390f35b34801561019157600080fd5b506101ac60048036036101a791908101906107ae565b6105e7565b6040516101b99190610af2565b60405180910390f35b600062278d004201905060026101006040519081016040528087600019168152602001868152602001858152602001428152602001838152602001848152602001600081526020013373ffffffffffffffffffffffffffffffffffffffff1681525090806001815401808255809150509060018203906000526020600020906008020160009091929091909150600082015181600001906000191690556020820151816001015560408201518160020155606082015181600301556080820151816004015560a0820151816005015560c0820151816006015560e08201518160070160006101000a81548173ffffffffffffffffffffffffffffffffffffffff021916908373ffffffffffffffffffffffffffffffffffffffff1602179055505050505050505050565b60606002805480602002602001604051908101604052809291908181526020016000905b828210156103e8578382906000526020600020906008020161010060405190810160405290816000820154600019166000191681526020016001820154815260200160028201548152602001600382015481526020016004820154815260200160058201548152602001600682015481526020016007820160009054906101000a900473ffffffffffffffffffffffffffffffffffffffff1673ffffffffffffffffffffffffffffffffffffffff1673ffffffffffffffffffffffffffffffffffffffff168152505081526020019060010190610310565b50505050905090565b60028181548110151561040057fe5b90600052602060002090600802016000915090508060000154908060010154908060020154908060030154908060040154908060050154908060060154908060070160009054906101000a900473ffffffffffffffffffffffffffffffffffffffff16905088565b6000607b905090565b4260028281548110151561048157fe5b9060005260206000209060080201600301541015156104d5576040517f08c379a00000000000000000000000000000000000000000000000000000000081526004016104cc90610ab2565b60405180910390fd5b6002818154811015156104e457fe5b90600052602060002090600802016005015434111515610539576040517f08c379a000000000000000000000000000000000000000000000000000000000815260040161053090610ad2565b60405180910390fd5b3460028281548110151561054957fe5b906000526020600020906008020160060160008282540192505081905550600360008281526020019081526020016000203390806001815401808255809150509060018203906000526020600020016000909192909190916101000a81548173ffffffffffffffffffffffffffffffffffffffff021916908373ffffffffffffffffffffffffffffffffffffffff1602179055505050565b60015481565b6105ef6106c4565b6002828154811015156105fe57fe5b906000526020600020906008020161010060405190810160405290816000820154600019166000191681526020016001820154815260200160028201548152602001600382015481526020016004820154815260200160058201548152602001600682015481526020016007820160009054906101000a900473ffffffffffffffffffffffffffffffffffffffff1673ffffffffffffffffffffffffffffffffffffffff1673ffffffffffffffffffffffffffffffffffffffff16815250509050919050565b6101006040519081016040528060008019168152602001600081526020016000815260200160008152602001600081526020016000815260200160008152602001600073ffffffffffffffffffffffffffffffffffffffff1681525090565b600061072f8235610b82565b905092915050565b60006107438235610b8c565b905092915050565b6000806000806080858703121561076157600080fd5b600061076f87828801610723565b945050602061078087828801610737565b935050604061079187828801610737565b92505060606107a287828801610737565b91505092959194509250565b6000602082840312156107c057600080fd5b60006107ce84828501610737565b91505092915050565b6107e081610b4e565b82525050565b60006107f182610b36565b80845260208401935061080383610b29565b60005b8281101561083657610819868351610961565b61082282610b41565b915061010086019550600181019050610806565b50849250505092915050565b61084b81610b6e565b82525050565b6000601482527f506f736974696f6e2068617320657870697265640000000000000000000000006020830152604082019050919050565b6000600e82527f466565206e6f7420656e6f7567680000000000000000000000000000000000006020830152604082019050919050565b610100820160008201516108d66000850182610842565b5060208201516108e96020850182610a03565b5060408201516108fc6040850182610a03565b50606082015161090f6060850182610a03565b5060808201516109226080850182610a03565b5060a082015161093560a0850182610a03565b5060c082015161094860c0850182610a03565b5060e082015161095b60e08501826107d7565b50505050565b610100820160008201516109786000850182610842565b50602082015161098b6020850182610a03565b50604082015161099e6040850182610a03565b5060608201516109b16060850182610a03565b5060808201516109c46080850182610a03565b5060a08201516109d760a0850182610a03565b5060c08201516109ea60c0850182610a03565b5060e08201516109fd60e08501826107d7565b50505050565b610a0c81610b78565b82525050565b60006020820190508181036000830152610a2c81846107e6565b905092915050565b600061010082019050610a4a600083018b610842565b610a57602083018a610a03565b610a646040830189610a03565b610a716060830188610a03565b610a7e6080830187610a03565b610a8b60a0830186610a03565b610a9860c0830185610a03565b610aa560e08301846107d7565b9998505050505050505050565b60006020820190508181036000830152610acb81610851565b9050919050565b60006020820190508181036000830152610aeb81610888565b9050919050565b600061010082019050610b0860008301846108bf565b92915050565b6000602082019050610b236000830184610a03565b92915050565b6000602082019050919050565b600081519050919050565b6000602082019050919050565b600073ffffffffffffffffffffffffffffffffffffffff82169050919050565b6000819050919050565b6000819050919050565b6000819050919050565b60008190509190505600a265627a7a72305820eb5cd9c5ee6f373d95ad90aed30b4264c515c9746fdf4394614e133cca7d44b66c6578706572696d656e74616cf50037",
  "source": "pragma experimental ABIEncoderV2;\n\ncontract FindMe {\n\n    address private owner;\n\n    uint256 public fee;\n\n    struct Position {\n        bytes32 id;\n        uint256 minRate;\n        uint256 maxRate;\n        uint256 expires;\n        uint256 added;\n        uint256 applicationFee;\n        uint256 feesTaken;\n        address owner;\n    }\n\n    Position[] public positions;\n    mapping(uint256 => address[]) applicants;\n\n    constructor() public {\n        owner = msg.sender;\n        fee = 100 finney;\n\n        addPosition('asdf', 123, 456, 78);\n    }\n\n    function getTest() public pure returns (uint256) {\n        return 123;\n    }\n\n    function getPositions() public view returns (Position[]) {\n        return positions;\n    }\n\n    function getPosition(uint256 _index) public view returns (Position) {\n        return positions[_index];\n    }\n\n    function addPosition(bytes32 _id, uint256 minRate, uint256 maxRate, uint256 _fee) public payable {\n\n        uint256 expires = now + 30 days;\n        positions.push(Position(_id, minRate, maxRate, now, expires, _fee, 0, msg.sender));\n    }\n\n    function apply(uint256 index) public payable {\n        require(positions[index].expires < now, \"Position has expired\");\n        require(msg.value > positions[index].applicationFee, \"Fee not enough\");\n        positions[index].feesTaken += msg.value;\n\n        applicants[index].push(msg.sender);\n    }\n\n\n}",
  "sourcePath": "/Users/embergess/Sites/findme/contracts/FindMe.sol",
  "compiler": {
    "name": "solc",
    "version": "0.4.24+commit.e67f0147.Emscripten.clang"
  },
  "schemaVersion": "2.0.1",
  "updatedAt": "2018-07-31T01:04:54.042Z"
}