{
  "contractName": "FindMe",
  "abi": [
    {
      "constant": true,
      "inputs": [],
      "name": "fee",
      "outputs": [
        {
          "name": "",
          "type": "uint256"
        }
      ],
      "payable": false,
      "stateMutability": "view",
      "type": "function"
    },
    {
      "inputs": [],
      "payable": false,
      "stateMutability": "nonpayable",
      "type": "constructor"
    },
    {
      "anonymous": false,
      "inputs": [
        {
          "indexed": true,
          "name": "_from",
          "type": "address"
        },
        {
          "indexed": true,
          "name": "_jobId",
          "type": "bytes32"
        }
      ],
      "name": "PositionAdded",
      "type": "event"
    },
    {
      "anonymous": false,
      "inputs": [
        {
          "indexed": true,
          "name": "_applicant",
          "type": "address"
        },
        {
          "indexed": true,
          "name": "_owner",
          "type": "address"
        }
      ],
      "name": "PositionApplied",
      "type": "event"
    },
    {
      "constant": true,
      "inputs": [],
      "name": "getUserApplications",
      "outputs": [
        {
          "name": "",
          "type": "bytes32[]"
        }
      ],
      "payable": false,
      "stateMutability": "view",
      "type": "function"
    },
    {
      "constant": true,
      "inputs": [],
      "name": "getOwnerPositions",
      "outputs": [
        {
          "name": "",
          "type": "bytes32[]"
        }
      ],
      "payable": false,
      "stateMutability": "view",
      "type": "function"
    },
    {
      "constant": true,
      "inputs": [
        {
          "name": "_jobId",
          "type": "bytes32"
        }
      ],
      "name": "getApplicants",
      "outputs": [
        {
          "name": "",
          "type": "address[]"
        }
      ],
      "payable": false,
      "stateMutability": "view",
      "type": "function"
    },
    {
      "constant": false,
      "inputs": [
        {
          "name": "_jobId",
          "type": "bytes32"
        }
      ],
      "name": "makeApplication",
      "outputs": [],
      "payable": true,
      "stateMutability": "payable",
      "type": "function"
    },
    {
      "constant": false,
      "inputs": [
        {
          "name": "_jobId",
          "type": "bytes32"
        }
      ],
      "name": "addPosition",
      "outputs": [],
      "payable": true,
      "stateMutability": "payable",
      "type": "function"
    }
  ],
  "bytecode": "0x608060405234801561001057600080fd5b50336000806101000a81548173ffffffffffffffffffffffffffffffffffffffff021916908373ffffffffffffffffffffffffffffffffffffffff16021790555067016345785d8a00006001819055506106bc8061006f6000396000f300608060405260043610610078576000357c0100000000000000000000000000000000000000000000000000000000900463ffffffff168063113bf9da1461007d578063222fb0911461010357806328fd1d87146101275780635d02a1d914610193578063ca3b9f4a146101b7578063ddca3f4314610223575b600080fd5b34801561008957600080fd5b506100ac600480360381019080803560001916906020019092919050505061024e565b6040518080602001828103825283818151815260200191508051906020019060200280838360005b838110156100ef5780820151818401526020810190506100d4565b505050509050019250505060405180910390f35b61012560048036038101908080356000191690602001909291905050506102f7565b005b34801561013357600080fd5b5061013c61047d565b6040518080602001828103825283818151815260200191508051906020019060200280838360005b8381101561017f578082015181840152602081019050610164565b505050509050019250505060405180910390f35b6101b56004803603810190808035600019169060200190929190505050610516565b005b3480156101c357600080fd5b506101cc6105f1565b6040518080602001828103825283818151815260200191508051906020019060200280838360005b8381101561020f5780820151818401526020810190506101f4565b505050509050019250505060405180910390f35b34801561022f57600080fd5b5061023861068a565b6040518082815260200191505060405180910390f35b60606006600083600019166000191681526020019081526020016000208054806020026020016040519081016040528092919081815260200182805480156102eb57602002820191906000526020600020905b8160009054906101000a900473ffffffffffffffffffffffffffffffffffffffff1673ffffffffffffffffffffffffffffffffffffffff16815260200190600101908083116102a1575b50505050509050919050565b600360003373ffffffffffffffffffffffffffffffffffffffff1673ffffffffffffffffffffffffffffffffffffffff1681526020019081526020016000208190806001815401808255809150509060018203906000526020600020016000909192909190915090600019169055506006600082600019166000191681526020019081526020016000203390806001815401808255809150509060018203906000526020600020016000909192909190916101000a81548173ffffffffffffffffffffffffffffffffffffffff021916908373ffffffffffffffffffffffffffffffffffffffff1602179055505060056000826000191660001916815260200190815260200160002060009054906101000a900473ffffffffffffffffffffffffffffffffffffffff1673ffffffffffffffffffffffffffffffffffffffff163373ffffffffffffffffffffffffffffffffffffffff167fd8da13ffd2762191240c448db96acd73e1268dadf41d441d0beea8769474ddcc60405160405180910390a350565b6060600260003373ffffffffffffffffffffffffffffffffffffffff1673ffffffffffffffffffffffffffffffffffffffff16815260200190815260200160002080548060200260200160405190810160405280929190818152602001828054801561050c57602002820191906000526020600020905b815460001916815260200190600101908083116104f4575b5050505050905090565b600260003373ffffffffffffffffffffffffffffffffffffffff1673ffffffffffffffffffffffffffffffffffffffff16815260200190815260200160002081908060018154018082558091505090600182039060005260206000200160009091929091909150906000191690555060966004600083600019166000191681526020019081526020016000208190555080600019163373ffffffffffffffffffffffffffffffffffffffff167f918e5bfd8d4f758aa40a8a851a6cae2af292ea37ad924f68c6089181d3eb2e8760405160405180910390a350565b6060600360003373ffffffffffffffffffffffffffffffffffffffff1673ffffffffffffffffffffffffffffffffffffffff16815260200190815260200160002080548060200260200160405190810160405280929190818152602001828054801561068057602002820191906000526020600020905b81546000191681526020019060010190808311610668575b5050505050905090565b600154815600a165627a7a723058207773006592518405e35f638e40c37f8f38a56cc3ac70c46c3b23b94858bccd720029",
  "source": "pragma solidity ^0.4.24;\n\ncontract FindMe {\n\n    address private owner;\n\n    uint256 public fee;\n\n    mapping(address => bytes32[]) ownerPositions;\n    mapping(address => bytes32[]) userApplications;\n    mapping(bytes32 => uint256) bounties;\n    mapping(bytes32 => address) positionOwner;\n    mapping(bytes32 => address[]) applicants;\n\n    event PositionAdded(\n        address indexed _from,\n        bytes32 indexed _jobId\n    );\n\n    event PositionApplied(\n        address indexed _applicant,\n        address indexed _owner\n    );\n\n    constructor() public {\n        owner = msg.sender;\n        fee = 100 finney;\n    }\n\n    function getUserApplications() public view returns (bytes32[]) {\n        return userApplications[msg.sender];\n    }\n\n    function getOwnerPositions() public view returns (bytes32[]) {\n        return ownerPositions[msg.sender];\n    }\n\n    function getApplicants(bytes32 _jobId) public view returns (address[]) {\n        return applicants[_jobId];\n    }\n\n    function makeApplication(bytes32 _jobId) public payable {\n        userApplications[msg.sender].push(_jobId);\n        applicants[_jobId].push(msg.sender);\n\n        emit PositionApplied(msg.sender, positionOwner[_jobId]);\n    }\n\n    function addPosition(bytes32 _jobId) public payable {\n        ownerPositions[msg.sender].push(_jobId);\n        bounties[_jobId] = 150;\n        emit PositionAdded(msg.sender, _jobId);\n    }\n}",
  "sourcePath": "/Users/mattb/Code/findme/contracts/FindMe.sol",
  "compiler": {
    "name": "solc",
    "version": "0.4.24+commit.e67f0147.Emscripten.clang"
  },
  "schemaVersion": "2.0.1",
  "updatedAt": "2018-08-05T07:58:32.920Z"
}